:060000000A128A110C280F
:10000800FE00030EF1000A08F2000A128A115A28AB
:100018000A128A110F2883010A128A119B28831653
:10002800031708140816890183160313860187012C
:1000380088018901831203138501860187018801DC
:10004800890108107030831603138F040F1481126E
:100058008111011581140114C83083120313810022
:100068000B118B168B170B17831603130C178312A0
:1000780003130C13C3309F05831603131F129F121B
:10008800831203131F083F3980389F008316031318
:100098009F13831203131F140330F4009730F300E7
:1000A800F30B5428F40B5428592808000B1D5D281D
:1000B8005E287028031083120313081C0314031806
:1000C80066286A288312031308146D288312031301
:1000D8000810C83081000B11831203130C1F7528F8
:1000E800762894281F0CF000700C0F39003A031D75
:1000F8007E287F2886281E0886001F08C3391038E6
:100108009F0093281F0CF000700C0F39043A031D50
:100118008E288F2893281E088700C3309F050C134C
:1001280072088A00710E8300FE0E7E0E09000A1204
:100138008A1113200A128A111A30F600F830F500D5
:10014800F50BA428F60BA4280000831203139F18AC
:10015800AE28AF28A0289F14A0280A128A110C28BC
:08400000FF3FFF3FFF3FFF3FC0
:04400E00D420FF3F7C
:00000001FF
