:060000000A128A110C280F
:10000800FE00030EF2000A08F3000A128A11832D7B
:100018000A128A110F28F601F701F801F901831372
:100028005430840064300A128A1191270A128A1106
:1000380083010A128A111F2C831203133108803995
:10004800BB003108B6003607C100B01F2C282D2888
:100058002E28411441080319322833284228410A1E
:10006800031D3728382840280030B1000030B00080
:100078000030AF000030AE00B0174A280030B100A1
:100088000030B0000030AF000030AE0035088039D5
:10009800B6003608BB063508B6003607BC00B41FE4
:1000A8005628572858283C143C0803195C285D2812
:1000B8006C283C0A031D612862286A280030B500B4
:1000C8000030B4000030B3000030B200B417742818
:1000D8000030B5000030B4000030B3000030B2008A
:1000E8003C080319782879287E284108031D7D28B3
:1000F8007E2887280030B1000030B0000030AF0003
:100108000030AE00642B2E08F40034080A128A115D
:1001180068270A128A11750883120313C700740826
:10012800C6004608B600B701B801B9013908C000D1
:100138003808BF003708BE003608BD004708B600BB
:10014800B701B801B9013908C5003808C400370833
:10015800C3003608C2002F08F40033080A128A11B7
:1001680068270A128A11750883120313C7007408D6
:10017800C6004608B600B701B801B9013608BD0780
:10018800370803110318013E0319CB28BE073808A6
:1001980003110318013E0319D228BF0739080311B8
:1001A8000318013E0319D928C0074708B600B7014C
:1001B800B801B9013608C207370803110318013E10
:1001C8000319E728C307380803110318013E031968
:1001D800EE28C407390803110318013E0319F5284E
:1001E800C5073008F40032080A128A1168270A1273
:1001F8008A11750883120313C7007408C6004608DD
:10020800B600B701B801B9013608BD0737080311B0
:100218000318013E03191129BE07380803110318F2
:10022800013E03191829BF07390803110318013EB5
:1002380003191F29C0074708B600B701B801B9015B
:100248003608C207370803110318013E03192D2980
:10025800C307380803110318013E03193429C407DA
:10026800390803110318013E03193B29C507083053
:10027800B6000310BD0DBE0DBF0DC00DB60B3D2958
:100288002F08F40032080A128A1168270A128A1104
:10029800750883120313C7007408C6004608B60021
:1002A8004708B700B801B9013608BD073708031178
:1002B8000318013E03196129BE0738080311031802
:1002C800013E03196829BF07390803110318013EC5
:1002D80003196F29C0072E08F40033080A128A117F
:1002E80068270A128A11750883120313C700740855
:1002F800C6004608B6004708B700B801B901360875
:10030800BD07370803110318013E03198C29BE07DE
:10031800380803110318013E03199329BF07390848
:1003280003110318013E03199A29C0070830B600C3
:100338000310BD0DBE0DBF0DC00DB60B9C292E08B8
:10034800F40032080A128A1168270A128A117508FD
:1003580083120313C7007408C6004608B60047088E
:10036800B700B801B9013608BD07370803110318EB
:10037800013E0319C029BE07380803110318013EBE
:100388000319C729BF07390803110318013E0319C8
:10039800CE29C0072F08F40034080A128A116827EA
:1003A8000A128A11750883120313C7007408C6005D
:1003B8004608B6004708B700B801B9013608C207B1
:1003C800370803110318013E0319EB29C30738083E
:1003D80003110318013E0319F229C4073908031150
:1003E8000318013E0319F929C5073008F40033083A
:1003F8000A128A1168270A128A11750883120313D0
:10040800C7007408C6004608B6004708B700B80118
:10041800B9013608C207370803110318013E03194A
:10042800162AC307380803110318013E03191D2AA9
:10043800C407390803110318013E0319242AC50704
:100448003008F40034080A128A1168270A128A113F
:10045800750883120313C7007408C6004608B6005F
:100468004708B700B801B90108300310B60DB70D39
:10047800B80DB90DFF3E031D392A3608C2073708E3
:1004880003110318013E03194A2AC3073808031148
:100498000318013E0319512AC40739080311031828
:1004A800013E0319582AC5073D08B6003E08B700A3
:1004B8003F08B8004008B90018300310B90CB80C50
:1004C800B70CB60CFF3E031D612A3608C207370871
:1004D80003110318013E0319722AC30738080311D0
:1004E8000318013E0319792AC407390803110318B0
:1004F800013E0319802AC5070830B6000310BD0D58
:10050800BE0DBF0DC00DB60B822A41083C07B600D0
:10051800B701B70D3608823EC60037080318013EFA
:10052800FF3EC700B42A0130B6000310C20DC30D48
:10053800C40DC50DB60B992AC01FA32AA42AA52A43
:1005480042140130B6000310BD0DBE0DBF0DC00D25
:10055800B60BA72AFF30C6070318C70AFF30C7071C
:10056800C41FB72AB82A972ABC01C01FBC2ABD2AB3
:10057800D92AFF303D05B600FF303E05B700FF30F1
:100588003F05B8007F304005B90039083804370402
:1005980036040319D02AD12AD42ABC01BC0AD92A84
:1005A800421CD72AD82AD92AD12A3C080319DD2A7D
:1005B800DE2A0F2B0130C207003003180130C307B1
:1005C800003003180130C407003003180130C50794
:1005D800451CEF2AF02A0F2B4208B6004308B70043
:1005E8004408B8004508B9000130BA00390DB90C03
:1005F800B80CB70CB60CBA0BFA2A3908C50038087B
:10060800C4003708C3003608C2000130C607031803
:10061800C70A0030C7074708803AFF0080307F02CA
:10062800031D182BFF304602031C1B2B1C2B272BEA
:100638007F3083120313C5008030C4000030C3002C
:100648000030C200582B831203134708803AFF007A
:1006580080307F02031D322B013046020318352BF0
:10066800362B422B003083120313C5000030C40020
:100678000030C3000030C200BB01582B83120313A3
:100688004608C100FF30C205FF30C3057F30C405EE
:100698000030C505411C512B522B532BC417410860
:1006A800B6000310360CC5003B08B6003608C50472
:1006B8004508B1004408B0004308AF004208AE0046
:1006C800080083120313A800280803196C2B6D2B4C
:1006D800812BA31F702B712B812B2009AA002109C4
:1006E800AB002209AC002309AD00AA0A0319AB0A22
:1006F8000319AC0A0319AD0A892B2308AD00220897
:10070800AC002108AB002008AA0023082204210419
:100718002004031D902B912B9A2B0030A30000304E
:10072800A2000030A1000030A0001E2C9630A900C5
:10073800AA2B0130A4002408A90701300310AD0C2E
:10074800AC0CAB0CAA0CFF3E031DA22BFE302D05F2
:10075800031DAF2BB02B9D2BCC2B0130A4002408FC
:10076800A9070130AA07003003180130AB07003091
:1007780003180130AC07003003180130AD07013011
:100788000310AD0CAC0CAB0CAA0CFF3E031DC42B24
:10079800FF302D05031DD12BD22BB12BDE2B0130C1
:1007A800A9020130A4000310AA0DAB0DAC0DAD0DCC
:1007B800A40BD72BAC1BE12BE22BE82B0230290230
:1007C8000318E72BE82BD32B2918EB2BEC2BF42B56
:1007D800FF30AA05FF30AB057F30AC05FF30AD0513
:1007E8000310A90C2908A400A501A601A701183027
:1007F8000310A40DA50DA60DA70DFF3E031DFC2B90
:100808002408AA042508AB042608AC042708AD046C
:1008180028080319102C112C162CA31F142C152C86
:10082800162CAD172D08A3002C08A2002B08A10038
:100838002A08A00008000A128A11EC260A128A1156
:10084800831203139F140A128A1132270A128A117B
:10085800831203136208A0006308A1000030A11BE3
:10086800FF30A200A30001300A128A1165230A1280
:100878008A11831203132308B5002208B400210843
:10088800B3002008B2003F30B100FA30B000FA30AF
:10089800AF00FB30AE000A128A1120200A128A111A
:1008A800831203133108CB003008CA002F08C9008F
:1008B8002E08C8000A128A11A2240A128A11831269
:1008C80003134908F7004808F6007708A9007608D6
:1008D800A8000A128A1196260A128A118312031393
:1008E8009F18772C782C272C1F0CD200520C0F390C
:1008F800003A031D802C812C862C1F08C339103820
:100908009F00912C1F0CD200520C0F39043A031D82
:100918008E2C8F2C912CC3309F0503308312031328
:10092800D3009730D200D20B972CD30B972C83127D
:1009380003139F14272C0A128A110C280310831200
:1009480003134A0D4B0DD1005108031DAC2CAD2CDF
:10095800B62C0030CB000030CA000030C90000308F
:10096800C800192D4808CC004908CD004A08CE0017
:100978004B08CF001F300310CF0CCE0CCD0CCC0C85
:10098800FF3E031DBF2C4C08D000CA17FF30C80516
:10099800FF30C905FF30CA050030CB059630D102BB
:1009A800D11FD72CD82CF22C5108803A973E031827
:1009B800DE2CDF2CE02CAD2C01300310CB0CCA0C44
:1009C800C90CC80CFF3E031DE12C0130CC004C08BB
:1009D800D107031DF02CF12CE02C092D20305102F9
:1009E800031CF72CF82C042DAD2C0130CC0003107F
:1009F800C80DC90DCA0DCB0DCC0BFB2C0130D10293
:100A08005108031D082D092DF92C500803190D2D27
:100A18000E2D192DC809C909CA09CB09C80A031915
:100A2800C90A0319CA0A0319CB0A08008312031357
:100A3800A501A11F202D212D282DA009A109A00A5B
:100A48000319A10AA501A50AA31F2B2D2C2D352DAD
:100A5800A209A309A20A0319A30A0130F400740821
:100A6800A506A601A7012008210403193C2D3D2D48
:100A7800742DA401A40A4B2D01300310A00DA10D63
:100A8800FF3E031D412D0130F4007408A407A11F87
:100A98004E2D4F2D402D01300310A60DA70DFF3E02
:100AA800031D502D21082302031D5C2D200822025E
:100AB800031C5F2D602D672D2008A2022108031C4E
:100AC800A303A302261401300310A10CA00CFF3EBF
:100AD800031D682D0130A402031D732D742D4F2DA5
:100AE80025080319782D792D7E2DA609A709A60AB0
:100AF8000319A70A2708A1002608A00008000B1D53
:100B0800862D872DB82D8312031388017808790460
:100B1800031D8F2D902D992D5408870001308800D2
:100B28000130F8000030F900B52D78037904031D71
:100B38009E2D9F2DA82D5608870002308800023070
:100B4800F8000030F900B52D023078067904031D4D
:100B5800AE2DAF2DB52D5808870004308800F80158
:100B6800F901FF3081000B11831203130C1FBD2DF7
:100B7800BE2DDB2D1F0CF000700C0F39003A031D41
:100B8800C62DC72DCA2D1E088600DA2D1F0CF000B1
:100B9800700C0F39043A031DD22DD32DDA2D1E08FF
:100BA800F000F1017008E2007108E3000C1373080B
:100BB8008A00720E8300FE0E7E0E09008312031354
:100BC800A501A31FE82DE92DF02DA209A309A20A6A
:100BD8000319A30AA501A50AA11FF32DF42DF92DC8
:100BE800A009A109A00A0319A10A200821040319D0
:100BF800FE2DFF2D2E2EA401A40A0D2E0130031068
:100C0800A00DA10DFF3E031D032E0130F400740852
:100C1800A407A11F102E112E022E21082302031D46
:100C2800172E20082202031C1A2E1B2E212E200804
:100C3800A2022108031CA303A30201300310A10C84
:100C4800A00CFF3E031D222E0130A402031D2D2EF1
:100C58002E2E112E25080319322E332E382EA209D6
:100C6800A309A20A0319A30A2308A1002208A000C5
:100C780008005E2E3F30952E0630952E5B30952E5F
:100C88004F30952E6630952E6D30952E7D30952EF1
:100C98000730952E7F30952E6F30952E7730952E14
:100CA8007C30952E3930952E5E30952E7930952EE4
:100CB8007130952E7508003A0319632E952E740825
:100CC800003A03193E2E013A0319402E033A03193C
:100CD800422E013A0319442E073A0319462E013AC7
:100CE8000319482E033A03194A2E013A03194C2EC8
:100CF8000F3A03194E2E013A0319502E033A0319DD
:100D0800522E013A0319542E073A0319562E013A66
:100D18000319582E033A03195A2E013A03195C2E67
:100D2800952E0800643083120313A0000030A10040
:100D38002908A3002808A2000A128A111A250A12F3
:100D48008A11831203132008AA00AB012A08DE00C7
:100D58002B08DF006430A0000030A1002908A300A0
:100D68002808A2000A128A11E2250A128A1183129F
:100D780003132108E1002008E0000A30A000003039
:100D8800A1006108A3006008A2000A128A111A25AE
:100D98000A128A11831203132108DD002008DC00DF
:100DA8000A30A0000030A1002908A3002808A200EA
:100DB8000A128A11E2250A128A11831203132108E2
:100DC800E1002008E0006108DB006008DA000800A4
:100DD800831603170814081689018316031386015E
:100DE8008701880189018312031385018601870120
:100DF800880189017030831603138F040F14811240
:100E08008111011581140114FF308312031381002D
:100E18000B118B168B170B17831603130C178312E2
:100E280003130C13C3309F05831603131F129F125D
:100E3800831203131F083F3980389F00831603135A
:100E48009F13831203131F140330F5009730F40027
:100E5800F40B2C2FF50B2C2F312F080083120313C2
:100E68005F08F5005E08F4000A128A113D260A128E
:100E78008A1183120313A000A1012008D4002108BD
:100E8800D5005D08F5005C08F4000A128A113D26B9
:100E98000A128A1183120313A000A1012008D600A8
:100EA8002108D7005B08F5005A08F4000A128A11D5
:100EB8003D260A128A1183120313A000A1012008FB
:100EC800D8002108D900080083120313A600A20144
:100ED800A3017408A000A1012008A4002108A5000E
:100EE800261C772F782F7E2F2408A2070318A30A21
:100EF8002508A30701300310A40DA50DFF3E031D0F
:100F08007F2F0310A60C2608031D8B2F8C2F742F00
:100F18002308F5002208F400080064008001840A10
:0A0F28000406031900340406922F9A
:08400000FF3FFF3FFF3FFF3FC0
:04400E00D420FF3F7C
:00000001FF
